:020000020000FC
:02000000CAC074
:10005400D5C02F932FB72F93EE24FF240027112709
:10006400BC9CE02CF12CBD9C402D312DF40E22279C
:10007400031F121FAC9C402D312DF40E2227031FA9
:10008400121FAD9C402D312D040F131F2F912FBF34
:100094002F912AE00895CF93DF935527662777277A
:1000A4004427C82FD92F2C2F3D2F285E334020F012
:1000B400C85ED3405395F7CFD03011F4C43620F046
:1000C400C456D0406395F8CFD03011F4CA3020F034
:1000D400CA50D0407395F8CF4C2FDF91CF9108953B
:1000E40008E008B9F2E0EEE9E50F04910B7F0BB9E3
:1000F40033D000E008B904E008B9F2E0EEE9E60F15
:1001040004910BB929D000E008B902E008B9F2E083
:10011400EEE9E70F04910BB91FD000E008B901E044
:1001240008B9F2E0EEE9E40F04910BB915D000E050
:1001340008B908950F931F930B2D1A2D1695079543
:100144001695079517ED019F012D18E2010F0093F5
:10015400B3001F910F9108950F938F939F930EE314
:1001640090E088EC0197F1F70A95D1F79F918F9170
:100174000F9108953F934F9332E34FEF4A95F1F770
:100184003A95D9F74F913F91089508E00EBF0FEFCC
:100194000DBF0FEF0AB90FE007B9239A219A03E8BC
:1001A4000093B00004E00093B10008E20093B300B0
:1001B40002E8009380000AE1009381000CE90093B7
:1001C400870000E40093860093E088EE00E000934B
:1001D4000201009303010FE800937A0004E4009302
:1001E4007C00789400917A00006400937A008091F6
:1001F4000001909101014FDF73DFF9CF0F930FB727
:100204000F934F935F936F931F93FF92EF9200901E
:10021400780010907900B02CA12C009103010030DB
:1002240009F018C087DF58E863E1C52ED62E11DF28
:100234004AE016950795F794E7944A95D1F7E0922A
:100244000001F092010105E400937C0001E00093B9
:10025400030113C0BB0CAA1CBB0CAA1C08EEB00EF5
:1002640003E0A01EA0928900B092880004E40093E9
:100274007C0000E00093030100C000917A00006458
:1002840000937A00EF90FF901F916F915F914F91CF
:100294000F910FBF0F911895189514D74C458725CA
:0402A40024570405D2
:00000001FF
